:10000000002000206D01000099010000990100000E
:100010009901000099010000990100009901000078
:100020009901000099010000990100009901000068
:10003000990100009901000099010000BD1700001E
:100040009901000099010000990100009901000048
:100050009901000099010000990100009901000038
:100060009901000099010000990100009901000028
:100070009901000099010000990100009901000018
:100080009901000099010000990100009901000008
:100090009901000010B5064C2378002B07D1054BC1
:1000A000002B02D0044800E000BF0123237010BDE4
:1000B0007C00002000000000181F000008B5084B5D
:1000C000002B03D00748084900E000BF0748036839
:1000D000002B00D108BD064B002BFBD09847F9E759
:1000E00000000000181F00008000002078000020A1
:1000F00000000000164B002B00D1144B9D464022FF
:1001000092029A1A924600218B460F461348144ACF
:10011000121A01F079FD0F4B002B00D098470E4BBF
:10012000002B00D098470020002104000D000D484E
:10013000002802D00C4800E000BF01F03FFD200085
:10014000290001F039FC01F023FDC0460000080041
:100150000020002000000000000000007C000020C3
:100160009C000020000000000000000006488047BE
:100170000649074A074B9B1A03DD043BC858D05079
:10018000FBDCFFF7B7FF0000E5020000241F0000C2
:10019000000000207C000020FEE7C04680B582B051
:1001A00000AF00F01FF8031C7B60084B5B680F2258
:1001B00013401A1C7B68D3407B60054B7A681A6039
:1001C0007B68181CBD4602B080BDC04600800C4054
:1001D0000800002080B500AF014B181CBD4680BD53
:1001E00000366E0180B582B000AF344BDB6A344A12
:1001F000134080225201934215D080225201934233
:1002000004D880221201934211D017E0802292017B
:10021000934204D08022D20493420CD00EE0294BAA
:100220001B687B6039E080231B027B6035E0264B36
:100230001B687B6031E0254B7B602EE01F4BDA684A
:10024000E023DB00134080229200934218D08022EA
:100250009200934206D8002B18D08022520093427D
:1002600011D016E0C0229200934206D08022D20024
:1002700093420ED1164B7B600EE0164B7B600BE079
:10028000154B7B6008E0154B7B6005E0144B7B60F1
:1002900002E000237B60C046C046084B1A68E0239A
:1002A0005B0213409B0B01337868191C01F0DEFBE5
:1002B000031C181CBD4602B080BDC04600800C4027
:1002C000003C0004040000200000002000366E0105
:1002D000406F4001809FD500C0D8A70040B56400A2
:1002E000804F120080B500AFBD4680BD80B500AF25
:1002F00080231B02181CBD4680BDC04680B500AFE0
:10030000FA239B00181CBD4680BDC04680B500AFD7
:10031000024B1B68181CBD4680BDC046040000206F
:1003200080B582B000AF78603960FEE780B586B0F6
:1003300000AFF860B9607A60FB681B687B61BB68DE
:1003400001229A40131CDB431A1C7B691A407B680C
:1003500001211940BB6899400B1C1A43FB681A60C5
:10036000BD4606B080BDC04680B582B000AF7860A3
:1003700039607B681A683B68DA40131C012213401D
:10038000181CBD4602B080BD80B500AF034BDB6CCE
:100390001B0EDBB2181CBD4680BDC046B081E00F0D
:1003A00080B582B000AF254B5A69E023DB001340D3
:1003B0008022920093421ED080229200934206D85F
:1003C000002B26D08022520093421FD027E0C0226B
:1003D0009200934204D0E022D20093421CD01EE04F
:1003E000FFF7D2FF031E122B02D9154B7B6020E0D2
:1003F000144B7B601DE0FFF7C7FF031E122B02D9D1
:10040000114B7B6015E0114B7B6012E0104B7B6061
:100410000FE0104B7B600CE00F4B7B6009E00F4A54
:10042000C6235B00101C191CFFF77AFF00237B60BA
:10043000C0467B68181CBD4602B080BD00800C40E1
:10044000804F120040420F0040B56400C0CF6A00E8
:10045000C0D8A700809FD500406F4001981C0000C5
:1004600090B583B000AFFC1C124B181C00F06CFA66
:10047000031C2370FB1C1B78072B06D0092B09D10A
:10048000FFF7B0FE031C7B600EE0FFF789FF031C43
:100490007B6009E0084AE3235B00101C191CFFF78E
:1004A0003FFF00237B60C0467B68181CBD4603B03D
:1004B00090BDC04606000C00981C000080B584B0BA
:1004C00000AF78603960184BDA6B0B23FB18511EB4
:1004D0008A411A70144B154ADA63134B5B68072282
:1004E0001340FB607B68124A934202D80023FB60F2
:1004F00005E07B680F4A934201D80123FB600A4B59
:10050000094A526807218A43111CFA680A435A6053
:100510000B23FB181B78002B02D0034B0022DA635D
:10052000BD4604B080BDC04600000C40711B0000F9
:100530000024F4000048E80180B500AFFFF74AFE50
:10054000031C181C0021FFF7B9FFBD4680BDC04643
:1005500080B582B000AF786039607A683B68101C63
:10056000191CFFF7ABFFBD4602B080BD80B584B05B
:1005700000AF78600023BB607B68404A93420CD098
:100580003F4A934209D03F4A934206D03E4B3F4AEE
:10059000181C111CFFF7C4FE00E0C0467B68181C45
:1005A00000F0D2F9031CFB607B68344A93420BD005
:1005B000334A93420FD0334A934213D1344B9B6A50
:1005C00003221340FB6015E0314B9B6A0C22134061
:1005D0009B08FB600EE02E4B9B6A302213401B09E8
:1005E000FB6007E0284AF9239B00101C191CFFF749
:1005F00097FEC046FB68012B05D014D3022B07D011
:10060000032B0AD02BE0FFF771FE031CBB602FE029
:10061000FFF77CFE031CBB602AE0FFF7BFFD031C55
:100620005B08BB6024E00023BB607B68154A9342F3
:1006300003D07B68114A934210D1154B9A6A7B68AC
:1006400010498B4201D1102300E01423DA40131E1D
:1006500004D0FFF753FE031CBB6009E008E00A4B1F
:100660000C4A181C111CFFF75BFE0023BB60C04640
:10067000BB68181CBD4604B080BDC04603001C000A
:1006800004001E0002001A00981C0000B5030000C0
:1006900000800C400E04000080B582B000AF78608E
:1006A000074B5B6D0122134000D005E0C046044BB0
:1006B0001B6D7A681340FAD1BD4602B080BDC046BA
:1006C00000800C4090B583B000AFFC1C164B181C8A
:1006D00000F03AF9031C2370FB1C1B78032B0DD090
:1006E00002DC022B05D017E0092B10D00A2B0AD010
:1006F00012E0FFF70BFE031C7B6010E0FFF7F6FD36
:10070000031C7B600BE0094B1B687B6007E0FFF775
:1007100069FD031C7B6002E000237B60C0467B68B0
:10072000181CBD4603B090BD073322000C0000200A
:1007300080B586B000AF78600A1CFB1C1A700023DD
:100740003B617B681B0A0F2213400A2B20D89A00BA
:100750001F4BD3181B689F461E4B7B6120E01E4B2E
:100760007B611DE01D4B7B611AE01D4B7B6101230A
:100770003B6115E01B4B7B6110233B6110E01A4B82
:100780007B6180235B003B610AE0184B7B6107E0E3
:10079000174AFB23DB00101C191CFFF7C1FD14E0F6
:1007A0007B681B0B1F221340FB603B69002B03D0AF
:1007B0003B69181CFFF770FFFB1C1B787969FA680E
:1007C000081C111C1A1CFFF7B1FDBD4606B080BD08
:1007D000F01C000040800C4008800C4044800C401D
:1007E00058800C4060800C4064800C4078800C4045
:1007F000981C000080B584B000AF78607A68F82358
:100800009B031340E0221203934200D179E0E022DF
:100810001203934213D88022920293423BD080224B
:100820009202934202D8002B23D074E08022D2029D
:10083000934223D0C022120393425DD06BE0D022BA
:10084000520393422CD0D0225203934208D88022E4
:10085000520393422BD0B022520393423DD05AE030
:10086000E0225203934231D08822920393424DD02A
:1008700051E0FFF7B7FC031CFB6055E0FFF7B2FC4B
:10088000031CFB602B4B9B680F2213401A1CFB6858
:10089000D340FB6048E0FFF781FC031CFB6043E0B2
:1008A000254B181CFFF762FE031CFB603CE0224B4B
:1008B000181CFFF75BFE031CFB601E4B9B6E0F2298
:1008C00013401A1CFB68D340FB602DE01B4B181C27
:1008D000FFF74CFE031CFB6026E0184B181CFFF7CB
:1008E00045FE031CFB60134B1B6F032213401A1CB5
:1008F000FB68D340FB6017E0FFF7B2FD031CFB6011
:1009000012E0FFF74DFD031CFB600DE0FFF7DAFE80
:10091000031CFB6008E00A4B0A4A181C111CFFF775
:10092000FFFC0023FB60C046FB68181CBD4604B0FA
:1009300080BDC04600800C4002001A0003001C006D
:10094000981C0000CC08000080B584B000AF78602F
:100950000F23FB1801221A707B680F221340BB6023
:10096000BB68072B00D9CAE0BB689A006D4BD3184F
:100970001B689F466C4BDB6A6C4A13408022520115
:10098000934216D080225201934204D88022120151
:10099000934213D01CE080229201934204D0802223
:1009A000D20493420FD013E00F23FB1802221A70D7
:1009B00013E00F23FB1803221A700EE00F23FB181D
:1009C00004221A7009E00F23FB180B221A7004E0AE
:1009D0000F23FB1805221A70C0469CE0524B9B6AFD
:1009E00003221340022B08D0032B0BD0012B0ED176
:1009F0000F23FB1803221A7015E00F23FB180222A5
:100A00001A7010E00F23FB1806221A700BE0464BF9
:100A10009A6A80235B02134004D00F23FB180C2238
:100A20001A7000E0C04676E03F4B9B6A0C221340F0
:100A3000082B08D00C2B0BD0042B0ED10F23FB1846
:100A400003221A7015E00F23FB1802221A7010E01F
:100A50000F23FB1806221A700BE0334B9A6A80238F
:100A60005B03134004D00F23FB180C221A7000E024
:100A7000C04650E02C4B9B6A30221340102B02D012
:100A8000202B05D009E00F23FB1803221A7009E080
:100A90000F23FB1802221A7004E00F23FB18012217
:100AA0001A70C04637E00F23FB1807221A7032E095
:100AB0001D4BDA6AE023DB0213408022920293424C
:100AC00012D08022D202934204D08022520293425A
:100AD00005D00EE00F23FB180A221A700EE00F2338
:100AE000FB1802221A7009E00F23FB1803221A7068
:100AF00004E00F23FB1801221A70C0460BE00C4AD9
:100B0000C7231B01101C191CFFF70AFC0F23FB183D
:100B100000221A70C0460F23FB181B78181CBD4614
:100B200004B080BD1C1D000000800C40003C00048F
:100B3000981C000080B588B000AF78600A1CFB1CD0
:100B40001A700323FB611B23FB1803221A70002376
:100B50003B617B680F221340FB60FB68072B00D9C9
:100B600010E1FB689A008C4BD3181B689F46FB1C56
:100B70001B780C2B2ED89A00884BD3181B689F46E5
:100B80000423FB611B23FB1800221A7029E00323B6
:100B9000FB611B23FB1801221A7022E00223FB6178
:100BA0001B23FB1802221A701BE00123FB611B238D
:100BB000FB1803221A7014E00523FB611B23FB18AA
:100BC00005221A700DE0764B764A181C111CFFF7AF
:100BD000A7FBDEE0724B744A181C111CFFF7A0FB48
:100BE000D7E01B23FB181B78181C0121012200F001
:100BF000EFF8FFF7A1FC6D4BFA695A62FFF7CEFAE6
:100C0000031CBB60BB68181C0021FFF7A1FCC0E0FF
:100C1000FB1C1B780C2B25D89A00654BD3181B683E
:100C20009F4600237B6124E000200121012200F087
:100C3000CFF802237B611CE001200121012200F09A
:100C4000C7F801237B6114E05A4B181C02210122D2
:100C5000FFF76CFB03237B610BE000237B61012327
:100C60003B6106E04E4B544A181C111CFFF758FB21
:100C70008FE0FB68022B0BD14C4B4C4A926A4F49D8
:100C800011407A6911433A6912040A439A6280E07A
:100C9000464B464A926A4A4911407A69920011438A
:100CA0003A6912050A439A6273E0FB1C1B78022B17
:100CB00006D0032B0CD0012B12D100237B6116E050
:100CC00000200121012200F083F802237B610EE065
:100CD00001200121012200F07BF801237B6106E065
:100CE0002F4B384A181C111CFFF71AFB51E02F4BF1
:100CF0002E4A926A30218A43111C7A6912010A43F2
:100D00009A6246E0FB1C1B78032B13D00A2B21D0E0
:100D1000022B2FD100200121012200F059F8234B92
:100D200040225A62C046214BDA6A80235B0213409C
:100D3000F9D026E001200121012200F049F81B4BE7
:100D400060225A62C046194BDA6A80239B02134024
:100D5000F9D016E005200121012200F039F8134BEB
:100D600080225A62C046114BDA6A8023DB021340AC
:100D7000F9D006E00A4B144A181C111CFFF7D0FAF0
:100D800007E006E0064B114A181C111CFFF7C8FAD1
:100D9000C046BD4608B080BD3C1D00005C1D000083
:100DA000981C0000140D0000190D000000800C407C
:100DB000901D000040800C40B80D0000FCFFFEFFBD
:100DC000F3FFEFFFE90D0000520E0000270F0000B7
:100DD00090B587B000AF041C081C111CFB1D221C21
:100DE0001A70BB1D021C1A707B1D0A1C1A70FB1D99
:100DF0001B78052B32D89A00294BD3181B689F46C5
:100E000001233B610223FB6001237B612DE004236E
:100E10003B610823FB6003237B6126E010233B61D9
:100E20002023FB6005237B611FE040233B6180237F
:100E3000FB6007237B6118E080235B003B6180231C
:100E40009B00FB6009237B610FE08023DB003B619B
:100E500080231B01FB6016237B6106E0114B124AC5
:100E6000181C111CFFF75CFA17E0BB1D1B78002B48
:100E700010D00E4B3A691A627B1D1B78002B0CD0E8
:100E8000C0460B4A7B69101C191CFFF76DFA031E44
:100E9000F7D002E0054BFA681A62BD4607B090BD74
:100EA000C41D0000981C0000CC12000000800C4003
:100EB0002C800C4080B582B000AF021C3960FB1D55
:100EC0001A70FB1D1B78002B21D0FB1D1B78012BFA
:100ED0001AD0FB1D1B78022B14D0FB1D1B78032B93
:100EE0000ED0FB1D1B78042B07D0FB1D1B78052B98
:100EF00001D13F230CE000230AE0F0239B0107E02F
:100F0000F02305E0114B03E0D323DB0100E0104B9D
:100F10003A6813410122134005D10E4B0E4A181CAA
:100F2000111CFFF7FDF90D49FB1D1A783B680120E4
:100F30009840031C181C131CDB009B189B00CB184B
:100F400010335860BD4602B080BDC0461FEF0000A0
:100F500007070000DC1D000059030000006000408E
:100F600080B582B000AF021C3960FB1D1A70FB1DFA
:100F70001B78002B21D0FB1D1B78012B1AD0FB1DE9
:100F80001B78022B14D0FB1D1B78032B0ED0FB1DEE
:100F90001B78042B07D0FB1D1B78052B01D13F23A9
:100FA0000CE000230AE0F0239B0107E0F02305E0BA
:100FB000114B03E0D323DB0100E0104B3A681341EF
:100FC0000122134005D10E4B0E4A181C111CFFF7CD
:100FD000A7F90D49FB1D1A783B6801209840031CB6
:100FE000181C131CDB009B189B00CB1810331860D7
:100FF000BD4602B080BDC0461FEF000007070000DD
:10100000DC1D00008603000000600040B0B584B025
:1010100000AFB960111C7B600F23FB18021C1A7013
:101020000E23FB180A1C1A700F23FB181B78002BC9
:1010300026D00F23FB181B78012B1ED00F23FB1883
:101040001B78022B17D00F23FB181B78032B10D013
:101050000F23FB181B78042B08D00F23FB181B78D9
:10106000052B01D13F230CE000230AE0F0239B0174
:1010700007E0F02305E04B4B03E0D323DB0100E066
:10108000494BBA6813410122134006D1474A8523D0
:101090005B00101C191CFFF743F90E23FB181B788B
:1010A000002B13D07B68002B08D00F23FB181A7875
:1010B000BB68101C191CFFF753FF07E00F23FB1838
:1010C0001A78BB68101C191CFFF7F4FEBB68072BCD
:1010D00022D8374C0F23FB181A7835480F23FB18FA
:1010E00019780B1CDB005B189B00C3185B68B968A0
:1010F0008900081C0F218140C9430B400E2179183B
:101100000978B868800081401943131CDB009B18E4
:101110009B00E318596029E0254C0F23FB181A782F
:1011200023480F23FB1819780B1CDB005B189B006E
:10113000C31808331B68B9681E4884466144890097
:10114000081C0F218140C9430B400E2179180978F2
:10115000B868184DAC466044800081401943131CA8
:10116000DB009B189B00E318083319600E23FB1863
:101170001B78002B13D17B68002B08D00F23FB18A2
:101180001A78BB68101C191CFFF7EAFE07E00F2352
:10119000FB181A78BB68101C191CFFF78BFEBD46A4
:1011A00004B0B0BD1FEF000007070000341E0000B0
:1011B00000600040F8FFFF3F80B586B000AFF860E8
:1011C000B9607A607B68002B06D1174AE423FF33AD
:1011D000101C191CFFF7A4F8BB68002B05D1134B9A
:1011E000181CFFF707FB031CBB60BB685A1E7B681B
:1011F0005B00101C191C00F039FC031C7B617B692F
:101200001B027B617B690A4A134006D0064AFA2317
:101210005B00101C191CFFF783F8FB687A695A61A0
:10122000BD4606B080BDC0468C1E00004081040053
:101230000700E0FF80B584B000AF78600A1CFB1C9B
:101240001A707B680F4A934209D07B680E4A93421A
:1012500005D00E4B0E4A181C111CFFF761F8FB1C41
:101260001B78DB43FB60FB6805221340FB60FB68D7
:101270005A007B68DA60FB1C1A787B68DA60BD462E
:1012800004B080BD00C0004000C400408C1E0000BF
:101290000F02000080B582B000AF786039607B68D3
:1012A0002F4A934209D07B682E4A934205D02E4B99
:1012B0002E4A181C111CFFF733F87B68181C00F02D
:1012C00057F87B681A683B681B8A01210B439BB265
:1012D000191C3B689B7B002B02D08023DB0000E0C5
:1012E00000230B431A437B681A607B681A683B68CB
:1012F0001B7D002B02D080239B0500E000231A43B6
:101300007B681A603B689B7C002B07D03B68DB7CCA
:1013100010221343DBB21A1C7B689A653B681B7B67
:101320001A1C80235B011A437B685A603B685A6829
:101330003B689B687968081C111C1A1CFFF73CFF6E
:101340003B685B7B002B02D07B681022DA603B6835
:101350001B781A1C7B68DA60BD4602B080BDC046AF
:1013600000C0004000C400408C1E00007702000056
:1013700080B582B000AF78607B68204A934209D084
:101380007B681F4A934205D01E4B1F4A181C111C34
:10139000FEF7C6FF7B681D4ADA607B6800221A6090
:1013A0007B681B4A5A607B6800229A607B68002237
:1013B0005A617B680022DA647B68164A9A647B680B
:1013C00000225A657B680D4A934203D07B680C4A21
:1013D000934202D17B6800221A657B6800229A65DD
:1013E0007B68064A934203D07B68054A934202D148
:1013F0007B680022DA65BD4602B080BD00C00040B7
:1014000000C400408C1E000047030000AA0E00002C
:1014100005100000F91F000080B582B000AF7860B1
:101420000A1CFB1C1A70C0467B681B6940221340D3
:10143000FAD0FB1C1A787B685A63C0467B681B692C
:1014400020221340FAD07B68DB69DBB2181CBD4652
:1014500002B080BD80B582B000AF78600A1CFB1C72
:101460001A70C0467B681B6940221340FAD0FB1CEF
:101470001A787B685A63BD4602B080BDB0B582B0B1
:1014800000AF021C3960FB1D1A70FB1D1B787F2BFF
:101490002FD92D4CFB1D1B781A1C0F231340083B22
:1014A0009908294AFB1D1B78181C0F230340083B91
:1014B0009B0806339B00D3185B68FA1D1278101C3A
:1014C00003220240D200101CFF228240D2431A4065
:1014D0003B689B01FF200340F81D0078051C03209A
:1014E0002840C00083401A438B1D9B00E3185A60BC
:1014F00026E0164CFB1D1B785BB29B081349FA1DB6
:10150000127852B29208C03292005258F91D0978EE
:10151000081C03210140C900081CFF218140C94368
:1015200011403A689201FF200240F81D0078051C26
:1015300003202840C00082400A43C0339B001A5158
:10154000BD4602B0B0BDC04600ED00E000E100E0E5
:1015500080B582B000AF78607B68013B0C4A934253
:1015600001D9012310E00B4B7A68013A5A6001233C
:101570005B42181C0321FFF781FF064B00229A6093
:10158000044B07221A600023181CBD4602B080BD20
:10159000FFFFFF0010E000E080B500AF034BDB6C05
:1015A0001B0EDBB2181CBD4680BDC046B081E00FEB
:1015B00080B582B000AF021C3960FB1D1A70FB1DA4
:1015C0001B78002B21D0FB1D1B78012B1AD0FB1D93
:1015D0001B78022B14D0FB1D1B78032B0ED0FB1D98
:1015E0001B78042B07D0FB1D1B78052B01D13F2353
:1015F0000CE000230AE0F0239B0107E0F02305E064
:10160000114B03E0D323DB0100E0104B3A68134198
:101610000122134005D10E4B0E4A181C111CFEF777
:101620007FFE0D49FB1D1A783B6801209840031C82
:10163000181C131CDB009B189B00CB181033586040
:10164000BD4602B080BDC0461FEF00000707000086
:10165000A01E0000590300000060004080B582B069
:1016600000AF021C3960FB1D1A70FB1D1B78002B9C
:1016700021D0FB1D1B78012B1AD0FB1D1B78022BE0
:1016800014D0FB1D1B78032B0ED0FB1D1B78042BE5
:1016900007D0FB1D1B78052B01D13F230CE0002355
:1016A0000AE0F0239B0107E0F02305E0114B03E083
:1016B000D323DB0100E0104B3A68134101221340B1
:1016C00005D10E4B0E4A181C111CFEF729FE0D49C0
:1016D000FB1D1A783B6801209840031C181C131C42
:1016E000DB009B189B00CB1810331860BD4602B07E
:1016F00080BDC0461FEF000007070000A01E0000CD
:10170000860300000060004080B582B000AF021C7C
:101710003960FB1D1A70FB1D1B78002B19D0FB1DB7
:101720001B78012B15D0FB1D1B78022B11D0FB1D44
:101730001B78032B0DD0FB1D1B78042B09D0FB1D40
:101740001B78052B05D00A4B0A4A181C111CFEF702
:10175000E7FD0949FB1D1A78131CDB009B189B0051
:10176000CB1810333A685A60BD4602B080BDC046FF
:10177000A01E0000C30300000060004090B583B0CD
:1017800000AFFC1DFFF708FF031C2370FB1D1B7837
:10179000812B08D8054B064A1A60064B054A126889
:1017A00005490A401A60BD4603B090BD18600C4060
:1017B00005000004E4800C40FFFFFFFE80B500AF91
:1017C000034B1B685A1C024B1A60BD4680BDC046C5
:1017D0009800002080B584B000AF7860064B1B688D
:1017E000FB60C046044B1A68FB68D21A7B689A42B9
:1017F000F8D3BD4604B080BD9800002080B500AF8E
:10180000114B181C0121FEF793FF04200A2104222A
:101810000023FFF7FBFB04200B2102220123FFF72B
:10182000F5FB04200C2104220023FFF7EFFB01202D
:101830000B2104220123FFF7E9FB01200B21FFF715
:1018400063FFBD4680BDC0460082040090B587B0EE
:1018500000AF164B181C0121FEF76AFF3B1C144A0F
:1018600013CA13C313CA13C33B1C05221A733B1CB0
:10187000104A9A603B1C01229A730F4A3B1C101CB1
:10188000191CFFF707FD0C4B0B4A12688021490217
:101890000A431A60084B181C0521FFF7CBFC064BC6
:1018A0000F225A65BD4607B090BDC0460032040005
:1018B000F81E000040420F0000C0004080B584B018
:1018C00000AF021CFB1D1A70BB1D0A1C1A70134BC3
:1018D000124A12688021C9000A431A6001200B21B4
:1018E000FFF766FE0F23FB18FA1D12781A700B4AD9
:1018F0000F23FB181B78101C191CFFF7ABFD074AC0
:10190000BB1D1B78101C191CFFF7A4FD01200B2127
:10191000FFF7A4FEBD4604B080BDC04600C0004035
:1019200090B585B000AF021CFB1D1A70174B174A0B
:1019300012688021C9000A431A6001200B21FFF7B9
:1019400037FE0F23FB18FA1D1278802149420A4303
:101950001A700E4A0F23FB181B78101C191CFFF776
:1019600079FD0E23FC18094B181C0021FFF754FDCC
:10197000031C237001200B21FFF770FE0E23FB18C0
:101980001B78181CBD4605B090BDC04600C0004085
:1019900080B500AF22200521FFF790FF0A20FFF756
:1019A00019FF1F203821FFF789FF2020C021FFF7F2
:1019B00085FFBD4680BDC04690B583B000AFFFF740
:1019C000DDFE11200521FFF7B5F8264B181C01217B
:1019D000FEF7AEFE244B181CFEF70CFF031C181C70
:1019E000FA23990000F042F8031C181CFFF7B0FD21
:1019F000031E00D0FEE7FFF729FFFFF7FFFEFFF70A
:101A0000C7FF0A20FFF7E6FEFC1D0F20FFF788FF47
:101A1000031C2370BC1D2820FFF782FF031C2370CA
:101A20007C1D2920FFF77CFF031C23703C1D2A200E
:101A3000FFF776FF031C2370FC1C2B20FFF770FFC1
:101A4000031C2370BC1C2C20FFF76AFF031C2370AF
:101A50007C1C2D20FFF764FF031C23700120FFF77F
:101A6000B9FED1E740810400500002000022430883
:101A70008B4274D303098B425FD3030A8B4244D356
:101A8000030B8B4228D3030C8B420DD3FF22090298
:101A900012BA030C8B4202D31212090265D0030B57
:101AA0008B4219D300E0090AC30B8B4201D3CB034D
:101AB000C01A5241830B8B4201D38B03C01A52418F
:101AC000430B8B4201D34B03C01A5241030B8B4291
:101AD00001D30B03C01A5241C30A8B4201D3CB027C
:101AE000C01A5241830A8B4201D38B02C01A524161
:101AF000430A8B4201D34B02C01A5241030A8B4264
:101B000001D30B02C01A5241CDD2C3098B4201D37B
:101B1000CB01C01A524183098B4201D38B01C01AF9
:101B2000524143098B4201D34B01C01A5241030970
:101B30008B4201D30B01C01A5241C3088B4201D31F
:101B4000CB00C01A524183088B4201D38B00C01ACC
:101B5000524143088B4201D34B00C01A5241411AF3
:101B600000D20146524110467047FFE701B5002000
:101B700000F00CF802BDC0460029F7D003B5FFF70E
:101B800075FF0EBC4243891A1847C0467047C046CD
:101B9000084B10B5041C002B02D0002100E000BF50
:101BA000054B1868836A002B00D09847201C00F072
:101BB00033F8C04600000000141F00000E4B70B543
:101BC00000251E1C0D4CE41AA410A54204D0AB0045
:101BD000F35898470135F8E700F020F8084B002546
:101BE0001E1C084CE41AA410A54204D0AB00F35804
:101BF00098470135F8E770BD7000002070000020A4
:101C00007000002074000020031C8218934202D050
:101C100019700133FAE77047FEE7C046F8B5C046D1
:101C2000F8BC08BC9E467047F8B5C046F8BC08BC76
:101C30009E467047433A5C55736572735C65766582
:101C400072742E4445534B544F502D3645453952EE
:101C500055385C53696D706C696369747953747538
:101C600064696F5C76345F776F726B737061636504
:101C70005C534C53544B33343030415F626C696E6B
:101C80006B5F345C656D6C69625F696E632F656D57
:101C90005F636D752E680000453A2F73696D706C37
:101CA00069636974795F73747564696F2F646576AD
:101CB000656C6F7065722F73646B732F6765636BF0
:101CC0006F5F73646B5F73756974652F76312E3146
:101CD0002F706C6174666F726D2F656D6C69622F09
:101CE0007372632F656D5F636D752E630000000076
:101CF000900700005E07000064070000580700001E
:101D000090070000900700006A07000074070000B9
:101D10007E070000900700008A070000FE0A00000E
:101D200074090000DC090000280A0000740A0000A1
:101D3000FE0A0000A60A0000B00A0000840D0000A0
:101D40006E0B0000100C0000100C0000AA0C00002C
:101D5000840D0000840D0000040D0000D40B000071
:101D6000D40B0000800B00008E0B00009C0B0000C9
:101D7000AA0B0000D40B0000D40B0000D40B000011
:101D8000D40B0000D40B0000B80B0000C60B000001
:101D9000640C0000220C0000280C0000380C00002D
:101DA000640C0000640C0000480C0000640C00008F
:101DB000640C0000640C0000640C0000640C000063
:101DC0005A0C0000380E00002A0E00000E0E000013
:101DD000000E00001C0E00004A0E0000653A5C7305
:101DE000696D706C69636974795F73747564696F28
:101DF0005C646576656C6F7065725C73646B735C54
:101E00006765636B6F5F73646B5F73756974655C43
:101E100076312E315C706C6174666F726D5C656DCD
:101E20006C69625C696E635C656D5F6770696F2E7B
:101E300068000000453A2F73696D706C69636974BE
:101E4000795F73747564696F2F646576656C6F7004
:101E500065722F73646B732F6765636B6F5F736459
:101E60006B5F73756974652F76312E312F706C61DD
:101E700074666F726D2F656D6C69622F7372632F5C
:101E8000656D5F6770696F2E630000002E2E2F65F1
:101E90006D6C69622F656D5F75736172742E63007E
:101EA000653A5C73696D706C69636974795F7374AA
:101EB0007564696F5C646576656C6F7065725C7380
:101EC000646B735C6765636B6F5F73646B5F737583
:101ED0006974655C76312E315C706C6174666F720A
:101EE0006D5C656D6C69625C696E635C656D5F6796
:101EF00070696F2E680000000500000000000000FF
:101F000040420F000501000000000000000000003A
:0C1F100043000000100000200000000052
:081F1C00D8E1FF7F0100000085
:101F240000366E0100800000809FD500006CDC024A
:101F3400000000000000000000000000000000009D
:101F4400000000000000000000000000000000008D
:101F5400101F00000000000000000000000000004E
:101F6400000000000000000000000000000000006D
:101F7400000000000000000000000000000000005D
:101F8400000000000000000000000000000000004D
:0C1F9400BD0000009500000000000000EF
:040000030000016D8B
:00000001FF
